:1000000091C0ABC0AAC0EBC6A8C0A7C0A6C0A5C07F
:100010001CC5A3C0A2C0D2C4A0C0E6C29EC09DC0E1
:100020009CC06E616E00696E660000407A10F35AE3
:1000300000A0724E18090010A5D4E80000E8764828
:10004000170000E40B54020000CA9A3B000000E1D4
:10005000F505000080969800000040420F00000067
:10006000A08601000000102700000000E803000047
:1000700000006400000000000A0000000000010011
:10008000000000002C76D888DC674F0823DFC1DF32
:10009000AE59E1B1B796E5E3E453C63AE651997635
:1000A00096E8E6C28426EB898C9B62ED407C6FFC6F
:1000B000EFBC9C9F40F2BAA56FA5F490055A2AF7B1
:1000C0005C936B6CF9676DC11BFCE0E40D47FEF5BA
:1000D00020E6B500D0ED902E030094357705008022
:1000E000841E080000204E0A000000C80C33333381
:1000F000330F986E12831141EF8D2114893BE65521
:1001000016CFFEE6DB18D1844B381BF77C1D901D03
:10011000A4BBE424203284725E228100C9F124EC65
:10012000A1E53D2711241FBECFE5D2E0DEBFCDBF44
:1001300010E0A0E6B0E0E4EEF8E102C005900D9218
:10014000AA36B107D9F710E0AAE6B0E001C01D92C7
:10015000A83EB107E1F78BD1C3CB52CF8CE590E03D
:100160009093A2008093A1001CBE10929B0010925D
:100170009C0010929D0010929E0010928F00109291
:100180009000109291008DE58093920080939300EF
:100190001092940010929500109296001092970081
:1001A0008DE3809398008093990010929A00EDE877
:1001B000F0E0108286E590E093A782A716BE14A215
:1001C00015A216A217A2108E8AE0818F87E3828F74
:1001D00083EA838F148E858F168E83E2878F8CE35C
:1001E00080A386E481A312A283A3168A8FE880935A
:1001F000840081E98093850081E28093860081E01C
:1002000090E090938800809387001092E60010920F
:10021000E50010928A0010928900089580E090E035
:1002200020E80FB6F89426BD86BD0FBEBA9AC298D4
:10023000D79ADF98B898C09AB998C19A8EB5816854
:100240008EBD91E09CB91CBE16BE80B7836A80BF8C
:1002500083B7816083BF99BF1C9A81E287B9379ABF
:10026000339A86B1866086B98BB780628BBF80B5C2
:10027000836080BD85B7816085BF019A479A0895E4
:1002800080E280936800809173008F5F8093730099
:10029000863088F5E82FF0E080938D008093A300EE
:1002A00084E180938E008093A400E357FF4F828106
:1002B000882371F4E091A100F091A20010821092C5
:1002C0009F001092A000E091A300F0E0E357FF4FE1
:1002D000808D882349F4E091B700F091B800108236
:1002E0001092B5001092B60080917300882311F42B
:1002F00010927400089510927300E0E0F0E080E046
:10030000CBCFF894809173008093750085E0809343
:100310007300B6DF16BE1CBE10BE13BE80B5836070
:1003200080BD8FEF9FE3A6E081509040A040E1F7B1
:1003300000C00000379885B7877E806185BF85B78C
:10034000806285BF78948895379A019A80B7836ACE
:1003500080BF83B7816083BF8FEF809367008093F6
:100360006600109277000895F89485B7877E85BF60
:1003700085B7806285BF78948895089508958FEF3A
:100380008093670080917100909172008233910593
:10039000F0F520918B0030918C002130310539F03F
:1003A00040917300442359F141E040937600AC0141
:1003B0004150564061E04D3F560738F44091870068
:1003C0005091880041305105B9F18150904141E090
:1003D0008F3F940760F48091870090918800009788
:1003E000F9F481E090E09093880080938700109268
:1003F0007200109271002130310571F0089582E091
:10040000809373003DDF8091710090917200209184
:100410008B0030918C00CBCF81E0809376000895E3
:100420001092880010928700109272001092710052
:100430002130310519F7F0CF2130310551F05093BB
:100440008C0040938B0021E02093760021E030E087
:10045000BCCF10928C0010928B0020E030E0B5CF22
:10046000A89514BE81B5886181BD11BC0895A89579
:1004700014BE81B5886181BD11BC70DECFDEE09114
:10048000A100F091A200809198008083E091B700D4
:10049000F091B8008091AE0080838FEF90E7A2E0EA
:1004A00081509040A040E1F700C00000E091A10021
:1004B000F091A2001082E091B700F091B800108294
:1004C0008FEF90E7A2E081509040A040E1F700C09C
:1004D0000000E091A100F091A2008091980080833B
:1004E000E091B700F091B8008091AE0080838FEF6B
:1004F00090E7A2E081509040A040E1F700C00000EA
:10050000E091A100F091A2001082E091B700F0917B
:10051000B80010828FEF90E7A2E081509040A04099
:10052000E1F700C0000010927000B1995AC081E05C
:1005300080936F0080E091E020916F00213099F569
:100540008F5FAFE1BEE41197F1F700C00000853680
:10055000B8F48431B0F0E091A100F091A2001082D3
:10056000E091B700F091B8001082B19919C0909352
:100570006F00B099E1CF9093700010926F00DCCFC4
:1005800080E0E091A100F091A200209197002083EB
:10059000E091B700F091B8002091AD002083E5CF45
:1005A00010926F00E6CFB19903C081E080936F0095
:1005B0008FEF90E7A2E081509040A040E1F700C0AB
:1005C0000000B09BFECF789481E08093760001C05C
:1005D000CBDE809176008130D9F793DE10927600E1
:1005E000F8CF10926F00A6CF1F920F920FB60F9206
:1005F00011240F931F932F933F934F935F936F9308
:100600007F938F939F93AF93BF93CF93DF93EF939A
:10061000FF9380916800882309F45BC081E0809398
:10062000690080916B00882309F05BC040917D00D8
:1006300050917E004F5F5F4F50937E0040937D004E
:1006400025B160917F007091800080918100909130
:100650008200620F711D811D911D60937F00709358
:100660008000809381009093820020916900E22FA6
:10067000F0E04E175F0708F44EC030E040E050E075
:100680005CD710927F00109280001092810010922F
:10069000820010927E0010927D0030916A00432FFC
:1006A0003230D8F1323009F4A9C0E32FEF5FE09384
:1006B0006A00E23009F4ABC0E33009F4A3C0F0E013
:1006C000EC57FF4F808187B982E080936B00369AA8
:1006D0000CC080E88093690080916B00882309F446
:1006E000A5CF95B1815080936B00369AFF91EF9121
:1006F000DF91CF91BF91AF919F918F917F916F913A
:100700005F914F913F912F911F910F910F900FBECD
:100710000F901F901895369AE8CFE0917300F0E0A3
:10072000832F90E066E170E0D6D6DC01A357BF4F7F
:10073000AE0FBF1F12961C911297112309F47AC0B5
:10074000121750F5832F90E066E170E0C4D6DC010B
:10075000A357BF4F52960C9152970023E9F0809116
:100760006800882309F4F0C0832F90E066E170E010
:10077000B2D6DC01A357BF4F015052960C93842F81
:1007800090E066E170E0A7D6DC01A357BF4FAE0F43
:10079000BF1F12961C911297211750F5842F90E0DD
:1007A00066E170E098D6DC01A357BF4F52961C91CA
:1007B00052971F3F01F180916800882309F48BC094
:1007C000842F90E066E170E086D6DC01A357BF4F2E
:1007D0001F5F52961C93842F90E066E170E07BD6F9
:1007E000DC01A357BF4FAE0FBF1F12961C9112978B
:1007F000211709F45ACF369A342F57CF80916800C9
:10080000882339F110926A00E0E0F0E059CF20919E
:100810007B0030917C002F5F3F4F30937C00209312
:100820007B0084E02030380799F1E0936A00E2E031
:10083000F0E046CF832F90E066E170E04CD6FC01FB
:10084000E357FF4F0488F589E02D108230916A004C
:100850002CCF233518F180916600882329F08091F0
:10086000660081508093660080916600843158F55F
:1008700081E0809377002935D8F080916700882344
:1008800029F18091670081508093670032E00DCF9D
:1008900037988091860087B9379A11CF809166008A
:1008A0008F3F11F3809166008F5F80936600DCCFED
:1008B000809167008F3F29F0809167008F5F809360
:1008C000670032E0F2CE10927700D5CF81E08093BE
:1008D000760032E0EACE842F90E066E170E0FBD54E
:1008E000DC01A357BF4F53961C911F5F842F90E0EC
:1008F00066E170E0F0D5DC01A357BF4F53961C931F
:100900005397103108F467CF842F90E066E170E0D0
:10091000E2D5DC01A357BF4F842F90E066E170E081
:10092000DAD583579F4FEC018A898F5F52968C935B
:10093000842F90E066E170E0CED5DC01A357BF4F75
:1009400053961C92539747CF832F90E066E170E057
:10095000C2D5DC01A357BF4F53961C911150832F72
:1009600090E066E170E0B7D5DC01A357BF4F539626
:100970001C9353971B3F08F402CF832F90E066E14E
:1009800070E0A9D5DC01A357BF4F832F90E066E14B
:1009900070E0A1D583579F4FEC018A898150529610
:1009A0008C93832F90E066E170E095D5DC01A3572E
:1009B000BF4F8FE053968C935397E1CE1F920F92C7
:1009C0000FB60F9211248F939F93EF93FF93809113
:1009D0007A00803100F110927A0080E0E091A1006D
:1009E000F091A20090919F009F5F90839091B6003C
:1009F000981718F1E091B700F091B8008091B50018
:100A00008F5F8083FF91EF919F918F910F900FBE29
:100A10000F901F9018958F5F80937A009091A0009F
:100A20009817E0F6E091A100F091A20090919F004C
:100A300090839091B6009817E8F6E091B700F09196
:100A4000B8008091B5008083DDCF1F920F920FB662
:100A50000F9211242F933F934F935F936F937F9344
:100A60008F939F93AF93BF93EF93FF934091790040
:100A70004F5F4093790080916C00809168008823DB
:100A800029F08091680081508093680080916C000B
:100A9000882351F080916C00815080936C0080918C
:100AA0006C00882309F455C02091E5003091E600E0
:100AB0002130310509F472C0F0917300FF2329F051
:100AC000842F68E71AD5992379F1809176008823DD
:100AD00029F480917700813009F4F9C04F7791F4BF
:100AE000809178008F5F8093780080918900909149
:100AF0008A00009739F480917300853010F01092CD
:100B00007300BEDB369AFF91EF91BF91AF919F9139
:100B10008F917F916F915F914F913F912F910F90A6
:100B20000FBE0F901F901895809174008F3F69F24F
:100B30008F5F809374002091870030918800211589
:100B4000310519F68B3008F4C0CF81E08093760030
:100B5000BCCF80B5836080BDB199DEC081E0809359
:100B60006F0080917000882349F488E028E130E02C
:100B70000FB6F894A89521BD0FBE81BDB099DFC016
:100B80002091E5003091E6002115310509F090CF64
:100B900081E090E09093E6008093E5002091710061
:100BA000309172002F5F3F4FC901422FE92F3093E0
:100BB0007200209371001092740080918B009091CC
:100BC0008C008130910509F4CAC0C9018F739070FF
:100BD0000097B9F454E02030350728F580918B0058
:100BE00090918C00009769F480917300853010F02B
:100BF0001092730045DB40917100E0917200242F48
:100C00003E2F2F3F310509F070F4C90162E370E017
:100C100080D4009741F480918B0090918C008130BA
:100C2000910509F4B4C0C9018150914054E08F3F4F
:100C3000950708F459C0F0917300C90162E370E0B0
:100C400068D40097D1F586E02130380708F470C0E9
:100C500057E02E3F3507D8F48091870090918800A7
:100C6000009709F465C0F53018F081E080937300B7
:100C700007DB2091710030917200C901422FE92FEA
:100C800062E370E046D40097B1F4F091730080E124
:100C90002130380708F44CC052E12030350708F005
:100CA00047C0F53018F081E080937300E9DA2091B5
:100CB000710030917200F091730083E12938380798
:100CC00018F081E08093760040917900F7CE4423BC
:100CD00009F46CC0453009F001CF80917500815056
:100CE00080937300CDDA0ECF80918B0090918C00B1
:100CF0008130910509F09FCFF0917300FF2309F433
:100D00009CCF86E080937300BBDA40917100E09144
:100D10007200242F3E2F8FCF80916F00813009F019
:100D20002DCF10926F00809376001092700026CF26
:100D3000242F3E2F83E12938380718F6C5CF20919C
:100D4000E5003091E6002130310509F0B5CE17DB22
:100D50001092E6001092E50040917900ADCE23306C
:100D6000310559F1C9018F739070009709F049CF8F
:100D700080917300853018F081E08093730080DAF1
:100D800040917100E0917200242F3E2F1ECF809180
:100D90007300853018F081E08093730071DA409120
:100DA0007100E0917200242F3E2F3DCFF09375002B
:100DB00085E08093730064DA93CE85E080937300BE
:100DC0005FDA80918B0090918C0081309105C1F6A3
:100DD00040917100E0917200242F3E2FC3CF1F92EB
:100DE0000F920FB60F9211248F9310BC83E0809363
:100DF0006C008F910F900FBE0F901F901895A3E17C
:100E0000B0E0E4E0F7E0BBC36C017F876E87FC01D4
:100E100017821682838181FD04C04EC34C855D8597
:100E200004C01E010894211C311CF6019381EE853B
:100E3000FF8593FD859193FF8191FF87EE8788233E
:100E400009F436C3853241F493FD859193FF819176
:100E5000FF87EE87853251F490E0B6014A8B5B8BB9
:100E6000B3D44A895B895D874C87D8CF10E0FF24D3
:100E700000E00032B0F48B3269F08C3228F480321A
:100E800051F0833271F40BC08D3239F0803349F464
:100E9000016028C00260046025C0086023C00061B2
:100EA00021C007FD2AC0282F20532A3078F406FFDE
:100EB00006C0812F6AE006D3182F120F13C08F2DA2
:100EC0006AE000D3F82EF20E00620CC08E3221F4DC
:100ED00006FDEEC2006406C08C3611F4006802C044
:100EE000883659F4EE85FF8593FD859193FF8191B6
:100EF000FF87EE87882309F0BCCF982F9554933055
:100F000018F40061805E06C0982F9556933008F063
:100F10008BC10F7E06FF16E06FE3E62EE0228536DA
:100F200019F4F0E4EF2A07C0863619F420E8E22A23
:100F300002C011111150E7FE06C01C3340F4912E7F
:100F4000939427E00BC0183030F4212F06C027E01F
:100F50003CE3932E03C027E017E09924CA010496CE
:100F60009D878C87FA016081718182819381A101C3
:100F7000092D3CD35C016980262D30E0398B288B0C
:100F800060FE03C0388933FF06C0E1FC06C0E2FE04
:100F900006C000E205C00DE203C00BE201C000E0A4
:100FA000888999898C7090700097A9F1002311F0BD
:100FB00084E001C083E08F1550F4F81AE3FC08C008
:100FC00080E290E0B60100D4FA94D1F701C0FF248A
:100FD000002321F0802F90E0B601F6D3888983FDAD
:100FE00003C006E210E00DC002E210E00AC0A11446
:100FF000B10409F0805290E0B601E6D30F5F1F4FB5
:1010000005C0AE2CBB2490E1A922BB24F801849139
:10101000882369F74AC2E7FE0EC09A0CF889F4FFEC
:1010200004C08A81813309F49A94191454F5292D46
:10103000293050F52DC0E6FC2BC0812F90E08A1599
:101040009B054CF03CEFA3163FEFB30624F080E87D
:10105000E82A01C01150112349F0E2E0F0E0EC0F62
:10106000FD1FE10FF11D80818033A1F3E7FE10C069
:10107000912E9394812F90E0A816B90644F41A1982
:1010800007C09924939404C098E0992E01C010E001
:10109000E7FE07C01A141B043CF495012F5F3F4F75
:1010A00005C025E030E002C021E030E0002311F06F
:1010B0002F5F3F4F112329F0812F90E00196280FD9
:1010C000391F8F2D90E02817390714F4F21A01C048
:1010D000FF244E2C5524C20189709070009741F472
:1010E00005C080E290E0B6016FD3FA94FF20C9F703
:1010F000002321F0802F90E0B60166D343FC08C0A6
:1011000005C080E390E0B6015FD3FA94FF20C9F7F1
:10111000E7FE44C03501B7FE02C0662477242501EE
:101120000894411C511C46185708420C531CF501E9
:10113000E919F1094F01812F90E000271127081BC1
:10114000190BFFEF6F16FFEF7F0621F48EE290E0A0
:10115000B6013AD3A614B70434F0861497041CF4ED
:10116000F201808101C080E308946108710808944D
:10117000411C511C6016710624F090E0B60124D386
:10118000E0CF6A147B0441F49A81963320F49533BE
:1011900019F4F889F4FF81E390E043C08A81813338
:1011A00011F02FEE622290E0B6010ED3112379F0F8
:1011B0008EE290E0B60108D302E0F101E00FF11DEC
:1011C0000F5F808190E0B601FFD21150B1F744FE6D
:1011D00003C085E490E002C085E690E0B601F4D259
:1011E000B7FC05C0A114B10441F464FE06C0B0947C
:1011F000A194B108B3948DE201C08BE290E0B601F6
:10120000E3D280E305C08F5FE6EFFFEFAE0EBF1EB7
:10121000FAE0AF16B104BCF790E0B601D5D2C50133
:10122000C096B601D1D241C1833631F0833789F0FF
:10123000833509F055C021C09A012E5F3F4F3D878D
:101240002C87FA0180818983310181E0A82EB12C9D
:1012500012C09A012E5F3F4F3D872C87FA016080B4
:10126000718006FF03C0612F70E002C06FEF7FEF57
:10127000C3019FD25C010F7713C09A012E5F3F4FCD
:101280003D872C87FA016080718006FF03C0612FC3
:1012900070E002C06FEF7FEFC30180D25C01006895
:1012A00003FD1AC005C080E290E0B6018DD2FA9429
:1012B0008F2D90E0A816B906B0F30EC0F30107FD1C
:1012C000859107FF81913F0190E0B6017DD2F11039
:1012D000FA940894A108B108A114B10479F7E5C003
:1012E000843611F0893659F507FF0BC09A012C5F3F
:1012F0003F4F3D872C87FA01608171818281938104
:101300000CC09A012E5F3F4F3D872C87FA01608108
:101310007181882777FD8095982F0F7697FF08C0F9
:1013200090958095709561957F4F8F4F9F4F006886
:10133000A1012AE030E074D2982E921840C085377F
:1013400021F40F7E2AE030E020C0097F8F36A9F01B
:10135000803720F4883509F0ABC00BC0803721F00E
:10136000883709F0A5C001C0006104FF09C004600E
:1013700007C004FF08C0066006C028E030E005C0D2
:1013800020E130E002C020E132E007FF0AC0CA01DC
:1013900004969D878C87FA01608171818281938197
:1013A00009C0CA0102969D878C87FA01608171810C
:1013B00080E090E0A10134D2982E92180F7706FFBA
:1013C00009C00E7F911630F404FF06C002FD04C070
:1013D0000F7E02C0E92C01C0E12E802F90E004FFB7
:1013E0000CC0FE01E90DF11D2081203311F4097EAE
:1013F00009C0E39402FF06C004C08678907000978D
:1014000009F0E394A02EBB2403FD13C000FF0EC01F
:10141000EF1428F4192D1F0D1E19EF2C07C0192DDC
:1014200005C080E290E0B601CFD1E394EF14C8F399
:1014300004C0EF1410F4FE1801C0FF24A4FE0EC077
:1014400080E390E0B601C0D1A2FE1DC0A1FE03C0A2
:1014500088E590E010C088E790E00DC0C50186786F
:101460009070009781F0A1FC02C080E201C08BE285
:1014700007FD8DE290E0B601A7D105C080E390E0C2
:10148000B601A2D111509116C8F39A94F101E90D59
:10149000F11D808190E0B60197D19920B1F705C088
:1014A00080E290E0B60190D1FA94FF20C9F7B6CC63
:1014B000F6012681378102C02FEF3FEFC901639605
:1014C000E2E179C0002480FD060E660F11F08695DA
:1014D000D1F7802D08955527002480FF02C0060E05
:1014E000571F660F771F6115710521F09695879537
:1014F000009799F7952F802D0895991B79E004C0E6
:10150000991F961708F0961B881F7A95C9F7809542
:101510000895AA1BBB1B51E107C0AA1FBB1FA6173A
:10152000B70710F0A61BB70B881F991F5A95A9F78C
:1015300080959095BC01CD010895A1E21A2EAA1BB9
:10154000BB1BFD010DC0AA1FBB1FEE1FFF1FA21773
:10155000B307E407F50720F0A21BB30BE40BF50B70
:10156000661F771F881F991F1A9469F760957095F9
:10157000809590959B01AC01BD01CF0108952F92FC
:101580003F924F925F926F927F928F929F92AF9213
:10159000BF92CF92DF92EF92FF920F931F93CF9360
:1015A000DF93CDB7DEB7CA1BDB0B0FB6F894DEBFF7
:1015B0000FBECDBF09942A88398848885F846E841D
:1015C0007D848C849B84AA84B984C884DF80EE8067
:1015D000FD800C811B81AA81B981CE0FD11D0FB670
:1015E000F894DEBF0FBECDBFED010895283008F09E
:1015F00027E03327DA01990F311D87FD91600096AE
:101600006105710539F432602E5F3D9330E32A9510
:10161000E1F708959F3F30F080387105610509F0CA
:101620003C5F3C5F3D93913008F08068911DDF93F3
:10163000CF931F930F93FF92EF92192F987F969558
:10164000E92F96959695E90FFF27EC57FF4F9927BD
:101650003327EE24FF24A701E7010590089407949F
:1016600028F4360FE71EF81E491F511D660F771F1D
:10167000881F991F0694A1F70590079428F4E70E98
:10168000F81E491F561FC11D770F881F991F661F1F
:101690000694A1F70590079428F4F80E491F561FE9
:1016A000C71FD11D880F991F661F771F0694A1F7CA
:1016B0000590079420F4490F561FC71FD81F990F94
:1016C000661F771F881F0694A9F7849110951770DD
:1016D00041F0D695C79557954795F794E7941A9595
:1016E000C1F7EAE2F0E068941590159135916591A3
:1016F000959105907FE27395E118F10A430B560B23
:10170000C90BD009C0F7E10CF11E431F561FC91FBA
:10171000D01D7EF4703311F48A95E6CFE894015021
:1017200030F0080F0AF40027021708F4202F239541
:10173000022F7A3328F079E37D932A95E9F710C0D8
:101740007D932A9589F60694979567953795179511
:101750001794E118F10A430B560BC90BD00998F006
:1017600023957E9173957A3308F070E37C93201370
:10177000B8F77E9170617D9330F0839571E37D932E
:1017800070E32A95E1F71124EF90FF900F911F91DC
:10179000CF91DF91992787FD90950895FC010590E1
:1017A000615070400110D8F7809590958E0F9F1F63
:1017B0000895FC016150704001900110D8F78095A8
:1017C00090958E0F9F1F08950F931F93CF93DF93D4
:1017D0008C01EB018B8181FF1BC082FF0DC02E812C
:1017E0003F818C819D812817390764F4E881F98154
:1017F0000193F983E88306C0E885F985802F099570
:10180000009731F48E819F8101969F838E8302C061
:101810000FEF1FEFC801DF91CF911F910F91089536
:10182000FA01AA27283061F1203191F1E8946F93F1
:101830006E7F6E5F7F4F8F4F9F4FAF4FB1E040D0B5
:10184000B4E03ED0670F781F891F9A1FA11D680F53
:10185000791F8A1F911DA11D6A0F711D811D911D88
:10186000A11D22D009F468943F91062E000C301976
:10187000000C000C3019305D3193CEF6CF01089585
:10188000462F4770405D4193B3E00FD0C9F7F6CFC4
:10189000462F4F70405D4A3318F0495D31FD40528C
:1018A000419302D0A9F7EACFB4E0A6959795879522
:1018B00077956795BA95C9F7009761057105089501
:1018C0009B01AC010A2E06945795479537952795AD
:1018D000BA95C9F7620F731F841F951FA01D089545
:0418E000F894FFCFAA
:0A18E4000001028F9121FFFF400177
:00000001FF
