:1000000091C0ABC0AAC095C5A8C0A7C0A6C0A5C0D6
:10001000E9C3A3C0A2C09FC3A0C035C29EC09DC0FB
:100020009CC06E616E00696E660000407A10F35AE3
:1000300000A0724E18090010A5D4E80000E8764828
:10004000170000E40B54020000CA9A3B000000E1D4
:10005000F505000080969800000040420F00000067
:10006000A08601000000102700000000E803000047
:1000700000006400000000000A0000000000010011
:10008000000000002C76D888DC674F0823DFC1DF32
:10009000AE59E1B1B796E5E3E453C63AE651997635
:1000A00096E8E6C28426EB898C9B62ED407C6FFC6F
:1000B000EFBC9C9F40F2BAA56FA5F490055A2AF7B1
:1000C0005C936B6CF9676DC11BFCE0E40D47FEF5BA
:1000D00020E6B500D0ED902E030094357705008022
:1000E000841E080000204E0A000000C80C33333381
:1000F000330F986E12831141EF8D2114893BE65521
:1001000016CFFEE6DB18D1844B381BF77C1D901D03
:10011000A4BBE424203284725E228100C9F124EC65
:10012000A1E53D2711241FBECFE5D2E0DEBFCDBF44
:1001300010E0A0E6B0E0E0E5F7E102C005900D9226
:10014000AA36B107D9F710E0AAE6B0E001C01D92C7
:10015000A63EB107E1F742D8F9CA52CF8CE590E04C
:100160009093A00080939F001CBE10929900109263
:100170009A0010929B0010929C0010928D00109299
:100180008E0010928F008DE58093900080939100F7
:100190001092920010929300109294001092950089
:1001A0008DE38093960080939700109298001092B0
:1001B0008B0086E590E09093B6008093B50016BE64
:1001C0001092AF001092B0001092B1001092B200E5
:1001D0001092A3008AE08093A40087E38093A50097
:1001E00083EA8093A6001092A7008093A800109243
:1001F000A90083E28093AA008CE38093AB0086E49D
:100200008093AC001092AD008093AE001092A100DC
:100210008FE88093840081E98093850081E2809358
:10022000860081E090E09093880080938700109290
:10023000E4001092E300089580E090E020E80FB61B
:10024000F89426BD86BD0FBEBA9AC298D79ADF9899
:10025000B898C09AB998C19A8EB581688EBD91E060
:100260009CB91CBE16BE80B7836A80BF83B781600D
:1002700083BF99BF1C9A81E287B9379A339A86B1B6
:10028000866086B98BB780628BBF80B5836080BD86
:1002900085B7816085BF019A479A089580E280936F
:1002A000620080916E008F5F863098F580936E00BB
:1002B000E82FF0E080938B008093A10084E180938D
:1002C0008C008093A200E557FF4F828181110EC000
:1002D000E0919F00F091A000108210929D0010927A
:1002E0009E00E091A100F0E0E557FF4F808D811165
:1002F00009C0E091B500F091B60010821092B300F1
:100300001092B40080916E00811102C010926D00B5
:10031000089510926E00E0E0F0E080E0CBCFF8941A
:1003200080916E0080936C0085E080936E00B6DF54
:1003300016BE1CBE10BE13BE80B5836080BD2FEFFD
:100340008FE396E0215080409040E1F700C000002C
:10035000379885B7877E806185BF85B7806285BF06
:1003600078948895379A019A80B7836A80BF83B75B
:10037000816083BF8FEF809363000895F89485B701
:10038000877E85BF85B7806285BF789488950895FC
:1003900008958FEF8093630080916F0090917000BB
:1003A0002091890030918A008233910558F42130E0
:1003B0003105F1F140916E00442309F449C041E058
:1003C00040936B00AC01415056404D3F514038F4D2
:1003D00040918700509188004130510561F1815072
:1003E00090418F3F914060F4809187009091880008
:1003F000892B91F481E090E09093880080938700AE
:100400001092700010926F002130310509F00895AC
:1004100081E080936B00089510928800109287000D
:100420001092700010926F002130310581F7F0CFEB
:1004300021E030E0C7CF21303105B9F050938A0078
:100440004093890021E020936B0021E030E0C7CF8A
:1004500082E080936E0022DF80916F0090917000A7
:100460002091890030918A00ADCF10928A001092BD
:10047000890020E030E0B3CFA89514BE81B5886133
:1004800081BD11BC08951F920F920FB60F921124D7
:100490002F933F934F935F936F937F938F939F938C
:1004A000AF93BF93CF93DF93EF93FF93809162005D
:1004B000882309F459C081E080936100809176001F
:1004C00081115AC040918100509182004F5F5F4F6F
:1004D000509382004093810025B160917D0070911E
:1004E0007E0080917F0090918000620F711D811DC0
:1004F000911D60937D0070937E0080937F009093A8
:10050000800020916100E22FF0E04E175F0708F4B1
:100510004BC030E040E050E040D710927D00109298
:100520007E0010927F001092800010928200109244
:100530008100309177003230C8F1323009F486C042
:100540003F5F30937700323009F489C0333009F4CB
:1005500081C0E32FF0E0EC57FF4F808187B982E044
:1005600080937600369A0CC080E880936100809179
:100570007600882309F4A6CF95B181508093760048
:10058000369AFF91EF91DF91CF91BF91AF919F91FB
:100590008F917F916F915F914F913F912F910F902C
:1005A0000FBE0F901F901895369AEACF832F90E0D8
:1005B00040916E0050E0DC01AA0FBB1FAA0FBB1FC9
:1005C000FD01E80FF91FEE0FFF1FE80FF91FEE0FF7
:1005D000FF1FE557FF4FEF01C40FD51F6A81662348
:1005E00009F44EC0621708F06BC07289772309F4D2
:1005F00067C0C0916200CC2309F4A1C07150728B16
:10060000762F2617E0F4A80FB91FAA0FBB1FA80F5B
:10061000B91FAA0FBB1FA557BF4F52968C91529777
:100620008F3F81F090916200992309F473C08F5F2E
:1006300052968C935297A40FB51F12967C91271750
:1006400009F47ECF369A309177007ACF809162009C
:100650008823E9F010927700E0E0F0E07CCF809111
:100660007B0090917C00019690937C0080937B00AE
:100670008115944039F130937700E2E0F0E06BCFE0
:100680000488F589E02D10823091770059CF22350A
:1006900028F180916000811131C091E090936A004F
:1006A0008F5F809360002935C8F0809163008823B4
:1006B00001F18091630081508093630032E040CF6C
:1006C000762F9FCF3798E0917700F0E0EC57FF4FFF
:1006D000808187B9379A3091770038CF8091630055
:1006E0008F3F29F0809163008F5F8093630032E039
:1006F00027CF81E080936B0032E022CF909163009E
:10070000915090936300843140F210926A008F3FC1
:1007100051F2C6CF53969C9153979F5F53969C93EB
:100720005397903138F08F5F52968C93529753962F
:100730001C925397A40FB51F12967C9180CFC3894A
:10074000C150C38BCB3F08F4BBCF7150728B7FE09D
:10075000738B762F56CF1F920F920FB60F921124E4
:100760008F939F93EF93FF9380917A00803100F1F4
:1007700010927A0080E0E0919F00F091A0009091AB
:100780009D009F5F90839091B400E091B500F0913F
:10079000B600981718F18091B3008F5F8083FF91A6
:1007A000EF919F918F910F900FBE0F901F90189512
:1007B0008F5F80937A0090919E009817E0F6E09109
:1007C0009F00F091A00090919D0090839091B400C3
:1007D000E091B500F091B6009817E8F68091B3006B
:1007E0008083DDCF1F920F920FB60F9211242F93AB
:1007F0003F934F935F936F937F938F939F93AF93A9
:10080000BF93EF93FF93809179008F5F809379007E
:100810008091750080916200882329F080916200A8
:1008200081508093620080917500882351F08091FF
:10083000750081508093750080917500882309F4BC
:100840004CC08091E3009091E400019709F45EC0F0
:1008500040916E00411124C08091790090916B000D
:10086000911105C090916A00913009F4EDC08F7725
:1008700029F4809178008F5F80937800369AFF91F9
:10088000EF91BF91AF919F918F917F916F915F9108
:100890004F913F912F910F900FBE0F901F90189581
:1008A00050917900852F68E758D5911114C0809137
:1008B0006D008F3F81F08F5F80936D0020918700E6
:1008C00030918800232B39F48B3028F081E080931D
:1008D0006B00852FC3CF852FC1CF80B5836080BDCE
:1008E000B19BBEC080917200813009F406C1B099FD
:1008F000C8C08091E3009091E400009709F0A5CF73
:1009000081E090E09093E4008093E300E0916F0039
:10091000F09170003196F0937000E0936F001092A8
:100920006D008091890090918A00019709F4B6C00A
:100930009F01C9018F739927892BB1F4211544E0D8
:10094000340718F58091890090918A00892B61F411
:1009500080916E00853010F010926E009FDCE09167
:100960006F00F09170009F012F3F310509F068F48E
:10097000C90162E370E0FDD4892B39F480918900CC
:1009800090918A00019709F4A3C0C9018150914058
:100990008F3F944008F442C040916E00C90162E369
:1009A00070E0E7D4892B91F5C901815096408D3FC5
:1009B0009140D0F48091870090918800892BA1F01C
:1009C000453018F081E080936E0068DCE0916F00A4
:1009D000F09170009F01CF0162E370E0CAD4892BCF
:1009E00009F0A3C040916E00215030412F3F3140AB
:1009F00008F06CC0453018F081E080936E004EDC4A
:100A000020916F003091700040916E002938334181
:100A100008F420CF81E080936B001CCF8091890087
:100A200090918A0040916E00019709F0B7CF44235E
:100A300009F4B4CF86E080936E0030DCE0916F0063
:100A4000F09170009F01A8CF882309F44FC08A302D
:100A500009F00DCF80916C0080936E001FDC0ECFEB
:100A600081E08093720080917100811140CF28E075
:100A700088E190E00FB6F894A89581BD0FBE21BD26
:100A800036CF8091E3009091E400019709F0E0CE29
:100A900080DC1092E4001092E300DACEE330F1053E
:100AA00099F19F01C9018F739927892B09F05CCFB8
:100AB00080916E00853018F081E080936E00EEDB4F
:100AC000E0916F00F09170009F0133CF9F019ECFA6
:100AD00080916E00853018F081E080936E00DEDB3F
:100AE000E0916F00F09170009F014FCF40936C0038
:100AF00085E080936E00D2DBBCCE109272008093B2
:100B00006B0010927100F3CE85E080936E00C6DB1F
:100B10008091890090918A00E0916F00F0917000BF
:100B20009F01019709F4BECF04CF9F0140916E0051
:100B30006DCF1F920F920FB60F9211248F9310BC9E
:100B400083E0809375008F910F900FBE0F901F90E0
:100B50001895A2E1B0E0EEEAF5E041C47C011B018A
:100B60006A01FC0117821682838181FF32C39E01D4
:100B70002F5F3F4F4901F7019381F10193FD85916B
:100B800093FF81911F01882309F41FC3853239F433
:100B900093FD859193FF81911F01853231F4B70157
:100BA00090E042D556016501E6CF10E0512C20E0DF
:100BB0002032A0F48B3269F030F4803259F0833265
:100BC00069F420612CC08D3239F0803339F4216012
:100BD00026C02260246023C0286021C027FD27C0D2
:100BE00030ED380F3A3078F426FF06C0812F6AE0E6
:100BF000ABD3182F130F13C0852D6AE0A5D3582E41
:100C0000530E20620CC08E3221F426FDDEC2206419
:100C100006C08C3611F4206802C0883641F4F10118
:100C200093FD859193FF81911F018111C1CF9BEBB2
:100C3000980F933018F42061805E06C09BE9980FEE
:100C4000933008F083C12F7E26FF16E02F73722E9B
:100C5000853619F42064722E08C0863621F4F22FEE
:100C6000F0687F2E02C01111115077FE07C01C33AF
:100C700048F444244394410E27E00BC0183030F46C
:100C8000212F06C027E04CE3442E03C027E017E0E5
:100C9000412C560134E0A30EB11CF6016081718134
:100CA00082819381042DA401D1D36C01098100FFBD
:100CB00002C003FF06C071FC07C072FC08C0612CB3
:100CC00008C03DE2632E05C02BE2622E02C090E216
:100CD000692E802F8C7081F1662011F084E001C0B4
:100CE00083E0851510F0512C0AC0581A73FC07C018
:100CF000B70180E290E098D45A94D1F7F4CF6620FF
:100D000021F0B701862D90E08FD403FD03C006E2E9
:100D100010E002C002E210E0F72DF0717F2EF80122
:100D20008491882309F448C271108052B70190E081
:100D30007BD40F5F1F4FF3CF77FE0FC04C0C04FF27
:100D400004C08A81813309F44A94141474F5F8E0DC
:100D5000F41578F588E0482E2CC076FC2AC0812F47
:100D600090E08C159D059CF02CEFC2162FEFD2065B
:100D700074F0372D3068732E0AC0E2E0F0E0EC0F1B
:100D8000FD1FE10FF11D8081803319F41150111105
:100D9000F4CF77FE0EC044244394410E812F90E09F
:100DA000C816D9062CF41C1904C04424439401C06D
:100DB00010E077FE07C01C141D043CF496012F5F61
:100DC0003F4F05C025E030E002C021E030E0662062
:100DD00011F02F5F3F4F112331F0412F50E04F5F53
:100DE0005F4F240F351F452D50E02417350714F4AD
:100DF000521A01C0512C872D897041F4552031F0D1
:100E0000B70180E290E010D45A94F8CF662021F028
:100E1000B701862D90E008D473FC08C0552031F04E
:100E2000B70180E390E000D45A94F8CF77FE47C032
:100E30003601D7FE02C0612C712C960124193109AC
:100E40003D872C8794012C0D3D1D3F872E87812FD8
:100E500090E022273327281B390B398B288B3FEF53
:100E60006316730621F4B7018EE290E0DDD3C61459
:100E7000D7045CF02C853D852615370534F4EE85C6
:100E8000FF85E619F709818101C080E331E0631A2B
:100E90007108288939896216730624F0B70190E039
:100EA000C3D3DDCF6C147D0439F49A81963318F4E2
:100EB000953311F404FF81E3B70190E045C08A81C6
:100EC000813309F00F7EB70190E0AED3111105C058
:100ED00074FE16C085E490E015C0B7018EE290E084
:100EE000A3D382E066246394680EF401E80FF11D39
:100EF0008081B70190E098D3115051F3862DF2CF45
:100F000085E690E0B70190D3D7FC05C0C114D104A9
:100F100039F404FF05C0D194C194D1088DE201C019
:100F20008BE2B70190E080D380E39AE0C916D10448
:100F30002CF08F5F3AE0C31AD108F7CFB70190E0E9
:100F400073D3B701C601C0966FD336C1833631F073
:100F5000833779F0833509F054C020C05601E2E0B0
:100F6000AE0EB11CF6018081898301E010E06401BE
:100F700013C05601F2E0AF0EB11CF601C080D18063
:100F800026FF03C0612F70E002C06FEF7FEFC60144
:100F90002A8B3FD38C012A892F7714C05601F2E0A7
:100FA000AF0EB11CF601C080D18026FF03C0612FB7
:100FB00070E002C06FEF7FEFC6012A8B1FD38C0158
:100FC0002A892068722E23FD18C0852D90E008170D
:100FD000190798F4B70180E290E026D35A94F5CF30
:100FE000F60177FC859177FE81916F01B70190E062
:100FF0001BD351105A94015011090115110581F7A5
:10100000DBC0843611F0893649F5560127FF09C047
:10101000F4E0AF0EB11CF601608171818281938191
:101020000AC0F2E0AF0EB11CF60160817181882721
:1010300077FD8095982F022F0F7697FF08C0909527
:101040008095709561957F4F8F4F9F4F00682AE084
:1010500030E0A4011BD3C82EC8183DC0022F85372D
:1010600021F40F7E2AE030E01DC0097F8F3691F019
:1010700018F4883559F0A9C0803719F0883711F075
:10108000A4C0006104FF09C0046007C024FF08C0B9
:10109000066006C028E030E005C020E130E002C074
:1010A00020E132E0560107FF09C0F4E0AF0EB11CA9
:1010B000F601608171818281938108C0F2E0AF0EF8
:1010C000B11CF6016081718180E090E0A401DED264
:1010D000C82EC8180F7706FF0BC0202F2E7FC11611
:1010E00050F404FF0AC002FD08C0202F2E7E05C068
:1010F000DC2C202F03C0DC2C01C0D12E24FF0DC01E
:10110000FE01EC0DF11D8081803311F4297E09C0B0
:1011100022FF06C0D394D39404C0822F867809F0AE
:10112000D39423FD12C020FF06C01C2DD51418F443
:10113000150D1D19D52CD51460F4B70180E290E08F
:101140002A8B72D2D3942A89F6CFD51410F45D1865
:1011500001C0512C24FF11C0B70180E390E02A8B1D
:1011600063D22A8922FF16C021FF03C088E590E0E0
:1011700002C088E790E0B7010CC0822F867851F05A
:1011800021FD02C080E201C08BE227FD8DE2B701A4
:1011900090E04AD2C11630F4B70180E390E044D227
:1011A0001150F8CFCA94F401EC0DF11D8081B70104
:1011B00090E03AD2C110F6CF552009F4F4CCB70133
:1011C00080E290E031D25A94F7CFF701868197817F
:1011D00002C08FEF9FEF6296E2E11DC1A89514BE99
:1011E00081B5886181BD11BCB9D726D8E0919F0037
:1011F000F091A000809196008083E091B500F0917D
:10120000B6008091AC0080832FEF80E792E0215000
:1012100080409040E1F700C00000E0919F00F09115
:10122000A0001082E091B500F091B6001082EFEFBF
:10123000F0E722E0E150F0402040E1F700C000007C
:10124000E0919F00F091A000809196008083E09152
:10125000B500F091B6008091AC0080838FEF90E7ED
:10126000E2E081509040E040E1F700C00000E091F2
:101270009F00F091A0001082E091B500F091B600BF
:101280001082FFEF20E782E0F15020408040E1F73C
:1012900000C0000010927100B19953C081E08093AA
:1012A000720091E004C090937200B09B1EC08091C8
:1012B0007200813011F5EFE1FEE43197F1F700C0E3
:1012C0000000E0919F00F091A00080919500808344
:1012D000E091B500F091B6008091AB008083B19BA6
:1012E000E2CF10927200B099E2CF90937100109209
:1012F0007200809172008130F1F2B19903C081E0F7
:10130000809372007894B09B15C081E080936B004D
:1013100009C0F89485B7877E85BF85B7806285BF91
:101320007894889580916B00813099F7F8D7109266
:101330006B00F8CF81E090E09093E4008093E300AD
:10134000F1CF10927200ADCF002480FD060E660F23
:1013500011F08695D1F7802D0895991B79E004C08E
:10136000991F961708F0961B881F7A95C9F78095E4
:101370000895AA1BBB1B51E107C0AA1FBB1FA617DC
:10138000B70710F0A61BB70B881F991F5A95A9F72E
:1013900080959095BC01CD010895A1E21A2EAA1B5B
:1013A000BB1BFD010DC0AA1FBB1FEE1FFF1FA21715
:1013B000B307E407F50720F0A21BB30BE40BF50B12
:1013C000661F771F881F991F1A9469F7609570959B
:1013D000809590959B01AC01BD01CF0108952F929E
:1013E0003F924F925F926F927F928F929F92AF92B5
:1013F000BF92CF92DF92EF92FF920F931F93CF9302
:10140000DF93CDB7DEB7CA1BDB0B0FB6F894DEBF98
:101410000FBECDBF09942A88398848885F846E84BE
:101420007D848C849B84AA84B984C884DF80EE8008
:10143000FD800C811B81AA81B981CE0FD11D0FB611
:10144000F894DEBF0FBECDBFED010895283008F03F
:1014500027E03327DA01990F311D87FD916000964F
:101460006105710539F432602E5F3D9330E32A95B2
:10147000E1F708959F3F30F080387105610509F06C
:101480003C5F3C5F3D93913008F08068911DDF9395
:10149000CF931F930F93FF92EF92192F987F9695FA
:1014A000E92F96959695E90FFF27EC57FF4F99275F
:1014B0003327EE24FF24A701E70105900894079441
:1014C00028F4360FE71EF81E491F511D660F771FBF
:1014D000881F991F0694A1F70590079428F4E70E3A
:1014E000F81E491F561FC11D770F881F991F661FC1
:1014F0000694A1F70590079428F4F80E491F561F8B
:10150000C71FD11D880F991F661F771F0694A1F76B
:101510000590079420F4490F561FC71FD81F990F35
:10152000661F771F881F0694A9F78491109517707E
:1015300041F0D695C79557954795F794E7941A9536
:10154000C1F7EAE2F0E06894159015913591659144
:10155000959105907FE27395E118F10A430B560BC4
:10156000C90BD009C0F7E10CF11E431F561FC91F5C
:10157000D01D7EF4703311F48A95E6CFE8940150C3
:1015800030F0080F0AF40027021708F4202F2395E3
:10159000022F7A3328F079E37D932A95E9F710C07A
:1015A0007D932A9589F606949795679537951795B3
:1015B0001794E118F10A430B560BC90BD00998F0A8
:1015C00023957E9173957A3308F070E37C93201312
:1015D000B8F77E9170617D9330F0839571E37D93D0
:1015E00070E32A95E1F71124EF90FF900F911F917E
:1015F000CF91DF91992787FD90950895FC01059083
:10160000615070400110D8F7809590958E0F9F1F04
:101610000895FC016150704001900110D8F7809549
:1016200090958E0F9F1F08950F931F93CF93DF9375
:10163000182F092FEB018B8181FD03C08FEF9FEFE6
:1016400020C082FF10C04E815F812C813D814217F6
:1016500053077CF4E881F9819F012F5F3F4F398365
:101660002883108306C0E885F985812F0995892B89
:1016700029F72E813F812F5F3F4F3F832E83812F9C
:10168000902FDF91CF911F910F910895FA01AA2712
:10169000283061F1203191F1E8946F936E7F6E5F95
:1016A0007F4F8F4F9F4FAF4FB1E040D0B4E03ED05F
:1016B000670F781F891F9A1FA11D680F791F8A1F46
:1016C000911DA11D6A0F711D811D911DA11D22D0AB
:1016D00009F468943F91062E000C3019000C000CA0
:1016E0003019305D3193CEF6CF010895462F477003
:1016F000405D4193B3E00FD0C9F7F6CF462F4F704E
:10170000405D4A3318F0495D31FD4052419302D0AB
:10171000A9F7EACFB4E0A695979587957795679551
:10172000BA95C9F700976105710508959B01AC0151
:101730000A2E06945795479537952795BA95C9F778
:10174000620F731F841F951FA01D0895F894FFCF8B
:0A175000FF0140FF21918F0201000C
:00000001FF
